{
  "address": "0x050381b7c7a0cC55a276ABB5e0b6025F170Dbb44",
  "abi": [
    {
      "inputs": [
        {
          "internalType": "contract IUniswapV2Router01",
          "name": "_uniswapRouter",
          "type": "address"
        },
        {
          "internalType": "contract ISuperToken",
          "name": "_outputToken",
          "type": "address"
        }
      ],
      "stateMutability": "nonpayable",
      "type": "constructor"
    },
    {
      "inputs": [
        {
          "internalType": "address",
          "name": "",
          "type": "address"
        },
        {
          "internalType": "address",
          "name": "from",
          "type": "address"
        },
        {
          "internalType": "address",
          "name": "",
          "type": "address"
        },
        {
          "internalType": "uint256",
          "name": "amount",
          "type": "uint256"
        },
        {
          "internalType": "bytes",
          "name": "userData",
          "type": "bytes"
        },
        {
          "internalType": "bytes",
          "name": "",
          "type": "bytes"
        }
      ],
      "name": "tokensReceived",
      "outputs": [],
      "stateMutability": "nonpayable",
      "type": "function"
    },
    {
      "inputs": [],
      "name": "uniswapFactory",
      "outputs": [
        {
          "internalType": "contract IUniswapV2Factory",
          "name": "",
          "type": "address"
        }
      ],
      "stateMutability": "view",
      "type": "function"
    }
  ],
  "transactionHash": "0x8a0dbefb3fd0779aae83020162d25f7a52e57ff77976f93a914a5280b66c1a4e",
  "args": [
    "0x7a250d5630b4cf539739df2c5dacb4c659f2488d",
    "0x8aE68021f6170E5a766bE613cEA0d75236ECCa9a"
  ],
  "solcInputHash": "8befd7b6249c5d6b25ec05e5df57b660",
  "bytecode": "0x60c060405234801561001057600080fd5b50604051610df8380380610df88339818101604052604081101561003357600080fd5b508051602090910151604080516329965a1d60e01b815230600482018190527fb281fc8c12954d22544db45de3159a39272895b169a852b314f9cc762e44c53b602483015260448201529051731820a4b7618bde71dce8cdc73aab6c95905fad24916329965a1d91606480830192600092919082900301818387803b1580156100bb57600080fd5b505af11580156100cf573d6000803e3d6000fd5b5050604080513260248083019190915282518083039091018152604490910182526020810180516001600160e01b0316630f41a04d60e11b178152915181519194506000935073084b1c3c81545d370f3634392de611caabff81489285928291908083835b602083106101535780518252601f199092019160209182019101610134565b6001836020036101000a0380198251168184511680821785525050505050509050019150506000604051808303816000865af19150503d80600081146101b5576040519150601f19603f3d011682016040523d82523d6000602084013e6101ba565b606091505b505090508061027e57736f628b68b30dc3c17f345c9dbbb1e483c2b7ae5c6001600160a01b0316826040518082805190602001908083835b602083106102115780518252601f1990920191602091820191016101f2565b6001836020036101000a0380198251168184511680821785525050505050509050019150506000604051808303816000865af19150503d8060008114610273576040519150601f19603f3d011682016040523d82523d6000602084013e610278565b606091505b50909150505b5050816001600160a01b031663c45a01556040518163ffffffff1660e01b815260040160206040518083038186803b1580156102b957600080fd5b505afa1580156102cd573d6000803e3d6000fd5b505050506040513d60208110156102e357600080fd5b50516001600160601b0319606091821b811660805291901b1660a0525060805160601c60a05160601c610ac06103386000398061025252806103a952806104745250806101a1528061032f5250610ac06000f3fe608060405234801561001057600080fd5b50600436106100355760003560e01c806223de291461003a5780638bdb2afa14610126575b600080fd5b610124600480360360c081101561005057600080fd5b6001600160a01b03823581169260208101358216926040820135909216916060820135919081019060a08101608082013564010000000081111561009357600080fd5b8201836020820111156100a557600080fd5b803590602001918460018302840111640100000000831117156100c757600080fd5b9193909290916020810190356401000000008111156100e557600080fd5b8201836020820111156100f757600080fd5b8035906020019184600183028401116401000000008311171561011957600080fd5b50909250905061014a565b005b61012e61019f565b604080516001600160a01b039092168252519081900360200190f35b610153336101c3565b61019533888787878080601f0160208091040260200160405190810160405280939291908181526020018383808284376000920191909152506101c692505050565b5050505050505050565b7f000000000000000000000000000000000000000000000000000000000000000081565b50565b60008490506000816001600160a01b031663ee719bc86040518163ffffffff1660e01b815260040160206040518083038186803b15801561020657600080fd5b505afa15801561021a573d6000803e3d6000fd5b505050506040513d602081101561023057600080fd5b505160408051631dce337960e31b815290519192506000916001600160a01b037f0000000000000000000000000000000000000000000000000000000000000000169163ee719bc8916004808301926020929190829003018186803b15801561029857600080fd5b505afa1580156102ac573d6000803e3d6000fd5b505050506040513d60208110156102c257600080fd5b5051604080516308de640f60e11b81526004810188905290519192506001600160a01b038516916311bcc81e9160248082019260009290919082900301818387803b15801561031057600080fd5b505af1158015610324573d6000803e3d6000fd5b5050505060006103577f0000000000000000000000000000000000000000000000000000000000000000848489306104db565b905060008111610398576040805162461bcd60e51b81526020600482015260076024820152662727afa820a4a960c91b604482015290519081900360640190fd5b816001600160a01b031663095ea7b37f0000000000000000000000000000000000000000000000000000000000000000836040518363ffffffff1660e01b815260040180836001600160a01b0316815260200182815260200192505050602060405180830381600087803b15801561040f57600080fd5b505af1158015610423573d6000803e3d6000fd5b505050506040513d602081101561043957600080fd5b5050604080516316e7427360e21b81526001600160a01b038981166004830152602482018490526060604483015260006064830181905292517f000000000000000000000000000000000000000000000000000000000000000090911692635b9d09cc9260a4808201939182900301818387803b1580156104b957600080fd5b505af11580156104cd573d6000803e3d6000fd5b505050505050505050505050565b600080866001600160a01b031663e6a4390587876040518363ffffffff1660e01b815260040180836001600160a01b03168152602001826001600160a01b031681526020019250505060206040518083038186803b15801561053c57600080fd5b505afa158015610550573d6000803e3d6000fd5b505050506040513d602081101561056657600080fd5b505190506001600160a01b0381166105825760009150506107ec565b8315610593576105938682866107f5565b6000816001600160a01b0316630dfe16816040518163ffffffff1660e01b815260040160206040518083038186803b1580156105ce57600080fd5b505afa1580156105e2573d6000803e3d6000fd5b505050506040513d60208110156105f857600080fd5b505160408051630240bc6b60e21b8152905191925060009182916001600160a01b03861691630902f1ac91600480820192606092909190829003018186803b15801561064357600080fd5b505afa158015610657573d6000803e3d6000fd5b505050506040513d606081101561066d57600080fd5b5080516020909101516dffffffffffffffffffffffffffff91821693501690506000806001600160a01b038b8116908616146106aa5782846106ad565b83835b915091506106bc89838361095f565b9650600080866001600160a01b03168d6001600160a01b0316146106e2578860006106e6565b6000895b604080516000808252602082019092529294509092506001600160a01b038a169163022c0d9f91859185918f9190506040518563ffffffff1660e01b815260040180858152602001848152602001836001600160a01b0316815260200180602001828103825283818151815260200191508051906020019080838360005b8381101561077c578181015183820152602001610764565b50505050905090810190601f1680156107a95780820380516001836020036101000a031916815260200191505b5095505050505050600060405180830381600087803b1580156107cb57600080fd5b505af11580156107df573d6000803e3d6000fd5b5050505050505050505050505b95945050505050565b604080516001600160a01b038481166024830152604480830185905283518084039091018152606490920183526020820180516001600160e01b031663a9059cbb60e01b178152925182516000946060949389169392918291908083835b602083106108725780518252601f199092019160209182019101610853565b6001836020036101000a0380198251168184511680821785525050505050509050019150506000604051808303816000865af19150503d80600081146108d4576040519150601f19603f3d011682016040523d82523d6000602084013e6108d9565b606091505b5091509150818015610907575080511580610907575080806020019051602081101561090457600080fd5b50515b610958576040805162461bcd60e51b815260206004820152601f60248201527f5472616e7366657248656c7065723a205452414e534645525f4641494c454400604482015290519081900360640190fd5b5050505050565b60008061096e856103e56109ad565b9050600061097c82856109ad565b9050600061099683610990886103e86109ad565b90610a0f565b90508082816109a157fe5b04979650505050505050565b6000826109bc57506000610a09565b828202828482816109c957fe5b0414610a065760405162461bcd60e51b8152600401808060200182810382526021815260200180610a6a6021913960400191505060405180910390fd5b90505b92915050565b600082820183811015610a06576040805162461bcd60e51b815260206004820152601b60248201527f536166654d6174683a206164646974696f6e206f766572666c6f770000000000604482015290519081900360640190fdfe536166654d6174683a206d756c7469706c69636174696f6e206f766572666c6f77a2646970667358221220ae623b28c1a5ef9fe8bd0000b19a56677d313276daee676c1866708ab856963264736f6c634300060c0033",
  "libraries": {
    "UniswapLibrary": "0x543dd7f953eFA51B7C5FFbB874EaBF15a241e849",
    "SafeMath": "0x68C8C0e92E859FD230F914Dc0a24103fd3ECbC19",
    "TransferHelper": "0x215BbF1419B066BaB084066b0E03e9E47e08AbDD"
  },
  "devdoc": {
    "kind": "dev",
    "methods": {},
    "version": 1
  },
  "userdoc": {
    "kind": "user",
    "methods": {},
    "version": 1
  },
  "storageLayout": {
    "storage": [],
    "types": null
  }
}